:020000040000FA
:020000000528D1
:040002000034003492
:080008003428831687018801EA
:10001000860186094030810090308B0083128B105E
:10002000880187014A2001308700FE3088000000E7
:100030001728081C2220881F2F20871B2B20071819
:1000400027200800871B2B200310870D08000314AE
:100050000818880C08000314881B880D080007186E
:1000600027200310870C0800A700192027088B10F1
:1000700009008207003400340034013400340034B5
:1000800000340234003400340034043408341034B2
:0A00900020344034FF3088000800DF
:02400E00313F40
:00000001FF
