:020000040000FA
:020000000528D1
:040002000034003492
:08000800982883168701880186
:10001000860186094030810090308B0083128B105E
:10002000A701880187014020A501803087002608AC
:1000300084003F30A8000008A9000408A100280897
:10004000840000082905880021088400B520840A5E
:10005000A80A0310870CA50A08302502031D1B28D7
:10006000142827185920A718402027198720A719D6
:100070008C20271A9220A71A7020271B54200800D2
:10008000B2203730A600A50130308400FF30800058
:10009000840AA50A17302502031D4628A50137301A
:1000A0008400FE308000080030302602031DA603C5
:1000B0000800A5013F30A800260884000008A90018
:1000C0000408A1002808840029088005210884006C
:1000D000840AA80AA50A08302502031D5E28080024
:1000E000A5013F30A800260884000008A9000408E4
:1000F000A100280884002909800421088400840ABA
:10010000A80AA50A08302502031D75280800373003
:100110002602031DA60A08003730840003140018C5
:10012000800C0800373084000314801B800D080009
:10013000A200060E0F39A120A700312022088B1043
:1001400009008207003400340034013400340034E4
:1001500000340234003400340034043408341034E1
:1001600020344034FF30880008000830A300A40089
:100170000000000000000000A40BB828A30BB72863
:02018000080075
:02400E00313F40
:00000001FF
