:020000040000FA
:020000000528D1
:040002000034003492
:080008004A28831687018801D4
:10001000860186094030810090308B0083128B105E
:10002000A201A501A601A301A40188018701632003
:10003000803087000708A500FE3088000808A60069
:1000400022182F20A218182022193620A2193A208F
:10005000221A3F20A21A4420221B462020282308CF
:10006000250487002408260488000800871F870DC0
:10007000A201080003140818880CA2010800031448
:10008000881B880DA201080000000800071C870CCF
:10009000A2010800A700060E0F395220A20027086F
:1000A0008B1009008207003400340034013400341E
:1000B0000034003402340034003400340434083492
:1000C000103420344034FF30880008000830A80085
:1000D000A9000000000000000000A90B6928A80B7F
:0400E0006828080084
:02400E00313F40
:00000001FF
